{
  "contractName": "Bank",
  "abi": [
    {
      "constant": true,
      "inputs": [],
      "name": "bal",
      "outputs": [
        {
          "internalType": "uint256",
          "name": "",
          "type": "uint256"
        }
      ],
      "payable": false,
      "stateMutability": "view",
      "type": "function"
    },
    {
      "constant": true,
      "inputs": [],
      "name": "balance",
      "outputs": [
        {
          "internalType": "uint256",
          "name": "",
          "type": "uint256"
        }
      ],
      "payable": false,
      "stateMutability": "view",
      "type": "function"
    },
    {
      "constant": true,
      "inputs": [],
      "name": "getBalance",
      "outputs": [
        {
          "internalType": "uint256",
          "name": "",
          "type": "uint256"
        }
      ],
      "payable": false,
      "stateMutability": "view",
      "type": "function"
    },
    {
      "constant": false,
      "inputs": [
        {
          "internalType": "uint256",
          "name": "amt",
          "type": "uint256"
        }
      ],
      "name": "withdraw",
      "outputs": [],
      "payable": false,
      "stateMutability": "nonpayable",
      "type": "function"
    },
    {
      "constant": false,
      "inputs": [
        {
          "internalType": "uint256",
          "name": "amt",
          "type": "uint256"
        }
      ],
      "name": "deposit",
      "outputs": [],
      "payable": false,
      "stateMutability": "nonpayable",
      "type": "function"
    },
    {
      "constant": true,
      "inputs": [],
      "name": "sayHello",
      "outputs": [
        {
          "internalType": "string",
          "name": "newName",
          "type": "string"
        }
      ],
      "payable": false,
      "stateMutability": "view",
      "type": "function"
    }
  ],
  "bytecode": "0x6080604052600a600055606460015534801561001a57600080fd5b506102438061002a6000396000f3fe608060405234801561001057600080fd5b50600436106100625760003560e01c806312065fe0146100675780632e1a7d4d146100855780633d79d1c8146100b3578063b69ef8a8146100d1578063b6b55f25146100ef578063ef5fb05b1461011d575b600080fd5b61006f6101a0565b6040518082815260200191505060405180910390f35b6100b16004803603602081101561009b57600080fd5b81019080803590602001909291905050506101a9565b005b6100bb6101b7565b6040518082815260200191505060405180910390f35b6100d96101bd565b6040518082815260200191505060405180910390f35b61011b6004803603602081101561010557600080fd5b81019080803590602001909291905050506101c3565b005b6101256101d1565b6040518080602001828103825283818151815260200191508051906020019080838360005b8381101561016557808201518184015260208101905061014a565b50505050905090810190601f1680156101925780820380516001836020036101000a031916815260200191505b509250505060405180910390f35b60008054905090565b806000540360008190555050565b60005481565b60015481565b806000540160008190555050565b60606040518060400160405280600581526020017f68656c6c6f00000000000000000000000000000000000000000000000000000081525090509056fea265627a7a723158207e19cc43b5a7237c8053f924c1180c5d0611da4807b3c2388b3d434a55e695fd64736f6c63430005100032",
  "source": "pragma solidity >0.4.25;\n\ncontract Bank\n{\n    uint256 public bal = 10;\n    uint256 public balance = 100;\n\n    \n    function getBalance() view public returns(uint256)\n    {\n\n        return bal;\n       \n    }\n\n    function withdraw(uint256 amt) public\n    {\n        bal = bal - amt;\n\n    }\n\n     function deposit(uint256 amt) public\n    {\n        bal = bal + amt;\n\n    }\n\n    function sayHello() view public returns(string memory newName)\n    {\n    newName = \"hello\";\n    }\n}",
  "sourcePath": "/Users/dipenbhuva/Desktop/Blockc/contracts/contracts/Bank.sol",
  "compiler": {
    "name": "solc",
    "version": "0.5.16+commit.9c3226ce.Emscripten.clang"
  },
  "schemaVersion": "3.4.13",
  "updatedAt": "2023-03-03T19:47:31.606Z",
  "networkType": "ethereum",
  "devdoc": {
    "methods": {}
  },
  "userdoc": {
    "methods": {}
  }
}