{
	"contracts/1_Storage.sol": {
		"Bank": {
			"abi": [
				{
					"constant": true,
					"inputs": [],
					"name": "getBalance",
					"outputs": [
						{
							"name": "",
							"type": "int256"
						}
					],
					"payable": false,
					"stateMutability": "view",
					"type": "function"
				},
				{
					"constant": false,
					"inputs": [
						{
							"name": "amt",
							"type": "int256"
						}
					],
					"name": "withdraw",
					"outputs": [],
					"payable": false,
					"stateMutability": "nonpayable",
					"type": "function"
				},
				{
					"constant": false,
					"inputs": [
						{
							"name": "amt",
							"type": "int256"
						}
					],
					"name": "deposit",
					"outputs": [],
					"payable": false,
					"stateMutability": "nonpayable",
					"type": "function"
				},
				{
					"inputs": [],
					"payable": false,
					"stateMutability": "nonpayable",
					"type": "constructor"
				}
			],
			"devdoc": {
				"methods": {}
			},
			"evm": {
				"assembly": "    /* \"contracts/1_Storage.sol\":25:363  contract Bank... */\n  mstore(0x40, 0x80)\n    /* \"contracts/1_Storage.sol\":59:110  constructor() public... */\n  callvalue\n    /* \"--CODEGEN--\":8:17   */\n  dup1\n    /* \"--CODEGEN--\":5:7   */\n  iszero\n  tag_1\n  jumpi\n    /* \"--CODEGEN--\":30:31   */\n  0x0\n    /* \"--CODEGEN--\":27:28   */\n  dup1\n    /* \"--CODEGEN--\":20:32   */\n  revert\n    /* \"--CODEGEN--\":5:7   */\ntag_1:\n    /* \"contracts/1_Storage.sol\":59:110  constructor() public... */\n  pop\n    /* \"contracts/1_Storage.sol\":100:101  1 */\n  0x1\n    /* \"contracts/1_Storage.sol\":94:97  bal */\n  0x0\n    /* \"contracts/1_Storage.sol\":94:101  bal = 1 */\n  dup2\n  swap1\n  sstore\n  pop\n    /* \"contracts/1_Storage.sol\":25:363  contract Bank... */\n  dataSize(sub_0)\n  dup1\n  dataOffset(sub_0)\n  0x0\n  codecopy\n  0x0\n  return\nstop\n\nsub_0: assembly {\n        /* \"contracts/1_Storage.sol\":25:363  contract Bank... */\n      mstore(0x40, 0x80)\n      jumpi(tag_1, lt(calldatasize, 0x4))\n      calldataload(0x0)\n      0x100000000000000000000000000000000000000000000000000000000\n      swap1\n      div\n      0xffffffff\n      and\n      dup1\n      0x12065fe0\n      eq\n      tag_2\n      jumpi\n      dup1\n      0x7e62eab8\n      eq\n      tag_3\n      jumpi\n      dup1\n      0xf04991f0\n      eq\n      tag_4\n      jumpi\n    tag_1:\n      0x0\n      dup1\n      revert\n        /* \"contracts/1_Storage.sol\":121:205  function getBalance() view public returns(int)... */\n    tag_2:\n      callvalue\n        /* \"--CODEGEN--\":8:17   */\n      dup1\n        /* \"--CODEGEN--\":5:7   */\n      iszero\n      tag_5\n      jumpi\n        /* \"--CODEGEN--\":30:31   */\n      0x0\n        /* \"--CODEGEN--\":27:28   */\n      dup1\n        /* \"--CODEGEN--\":20:32   */\n      revert\n        /* \"--CODEGEN--\":5:7   */\n    tag_5:\n        /* \"contracts/1_Storage.sol\":121:205  function getBalance() view public returns(int)... */\n      pop\n      tag_6\n      jump(tag_7)\n    tag_6:\n      mload(0x40)\n      dup1\n      dup3\n      dup2\n      mstore\n      0x20\n      add\n      swap2\n      pop\n      pop\n      mload(0x40)\n      dup1\n      swap2\n      sub\n      swap1\n      return\n        /* \"contracts/1_Storage.sol\":211:282  function withdraw(int amt) public... */\n    tag_3:\n      callvalue\n        /* \"--CODEGEN--\":8:17   */\n      dup1\n        /* \"--CODEGEN--\":5:7   */\n      iszero\n      tag_8\n      jumpi\n        /* \"--CODEGEN--\":30:31   */\n      0x0\n        /* \"--CODEGEN--\":27:28   */\n      dup1\n        /* \"--CODEGEN--\":20:32   */\n      revert\n        /* \"--CODEGEN--\":5:7   */\n    tag_8:\n        /* \"contracts/1_Storage.sol\":211:282  function withdraw(int amt) public... */\n      pop\n      tag_9\n      0x4\n      dup1\n      calldatasize\n      sub\n      dup2\n      add\n      swap1\n      dup1\n      dup1\n      calldataload\n      swap1\n      0x20\n      add\n      swap1\n      swap3\n      swap2\n      swap1\n      pop\n      pop\n      pop\n      jump(tag_10)\n    tag_9:\n      stop\n        /* \"contracts/1_Storage.sol\":289:359  function deposit(int amt) public... */\n    tag_4:\n      callvalue\n        /* \"--CODEGEN--\":8:17   */\n      dup1\n        /* \"--CODEGEN--\":5:7   */\n      iszero\n      tag_11\n      jumpi\n        /* \"--CODEGEN--\":30:31   */\n      0x0\n        /* \"--CODEGEN--\":27:28   */\n      dup1\n        /* \"--CODEGEN--\":20:32   */\n      revert\n        /* \"--CODEGEN--\":5:7   */\n    tag_11:\n        /* \"contracts/1_Storage.sol\":289:359  function deposit(int amt) public... */\n      pop\n      tag_12\n      0x4\n      dup1\n      calldatasize\n      sub\n      dup2\n      add\n      swap1\n      dup1\n      dup1\n      calldataload\n      swap1\n      0x20\n      add\n      swap1\n      swap3\n      swap2\n      swap1\n      pop\n      pop\n      pop\n      jump(tag_13)\n    tag_12:\n      stop\n        /* \"contracts/1_Storage.sol\":121:205  function getBalance() view public returns(int)... */\n    tag_7:\n        /* \"contracts/1_Storage.sol\":163:166  int */\n      0x0\n        /* \"contracts/1_Storage.sol\":190:193  bal */\n      dup1\n      sload\n        /* \"contracts/1_Storage.sol\":183:193  return bal */\n      swap1\n      pop\n        /* \"contracts/1_Storage.sol\":121:205  function getBalance() view public returns(int)... */\n      swap1\n      jump\t// out\n        /* \"contracts/1_Storage.sol\":211:282  function withdraw(int amt) public... */\n    tag_10:\n        /* \"contracts/1_Storage.sol\":271:274  amt */\n      dup1\n        /* \"contracts/1_Storage.sol\":265:268  bal */\n      sload(0x0)\n        /* \"contracts/1_Storage.sol\":265:274  bal - amt */\n      sub\n        /* \"contracts/1_Storage.sol\":259:262  bal */\n      0x0\n        /* \"contracts/1_Storage.sol\":259:274  bal = bal - amt */\n      dup2\n      swap1\n      sstore\n      pop\n        /* \"contracts/1_Storage.sol\":211:282  function withdraw(int amt) public... */\n      pop\n      jump\t// out\n        /* \"contracts/1_Storage.sol\":289:359  function deposit(int amt) public... */\n    tag_13:\n        /* \"contracts/1_Storage.sol\":348:351  amt */\n      dup1\n        /* \"contracts/1_Storage.sol\":342:345  bal */\n      sload(0x0)\n        /* \"contracts/1_Storage.sol\":342:351  bal + amt */\n      add\n        /* \"contracts/1_Storage.sol\":336:339  bal */\n      0x0\n        /* \"contracts/1_Storage.sol\":336:351  bal = bal + amt */\n      dup2\n      swap1\n      sstore\n      pop\n        /* \"contracts/1_Storage.sol\":289:359  function deposit(int amt) public... */\n      pop\n      jump\t// out\n\n    auxdata: 0xa165627a7a72305820928f8ef0d1c85dab731539eb8948da9db2b62b8ec032e1c2a8b728f021498ebb0029\n}\n",
				"bytecode": {
					"linkReferences": {},
					"object": "608060405234801561001057600080fd5b506001600081905550610125806100286000396000f3006080604052600436106053576000357c0100000000000000000000000000000000000000000000000000000000900463ffffffff16806312065fe01460585780637e62eab8146080578063f04991f01460aa575b600080fd5b348015606357600080fd5b50606a60d4565b6040518082815260200191505060405180910390f35b348015608b57600080fd5b5060a86004803603810190808035906020019092919050505060dd565b005b34801560b557600080fd5b5060d26004803603810190808035906020019092919050505060eb565b005b60008054905090565b806000540360008190555050565b8060005401600081905550505600a165627a7a72305820928f8ef0d1c85dab731539eb8948da9db2b62b8ec032e1c2a8b728f021498ebb0029",
					"opcodes": "PUSH1 0x80 PUSH1 0x40 MSTORE CALLVALUE DUP1 ISZERO PUSH2 0x10 JUMPI PUSH1 0x0 DUP1 REVERT JUMPDEST POP PUSH1 0x1 PUSH1 0x0 DUP2 SWAP1 SSTORE POP PUSH2 0x125 DUP1 PUSH2 0x28 PUSH1 0x0 CODECOPY PUSH1 0x0 RETURN STOP PUSH1 0x80 PUSH1 0x40 MSTORE PUSH1 0x4 CALLDATASIZE LT PUSH1 0x53 JUMPI PUSH1 0x0 CALLDATALOAD PUSH29 0x100000000000000000000000000000000000000000000000000000000 SWAP1 DIV PUSH4 0xFFFFFFFF AND DUP1 PUSH4 0x12065FE0 EQ PUSH1 0x58 JUMPI DUP1 PUSH4 0x7E62EAB8 EQ PUSH1 0x80 JUMPI DUP1 PUSH4 0xF04991F0 EQ PUSH1 0xAA JUMPI JUMPDEST PUSH1 0x0 DUP1 REVERT JUMPDEST CALLVALUE DUP1 ISZERO PUSH1 0x63 JUMPI PUSH1 0x0 DUP1 REVERT JUMPDEST POP PUSH1 0x6A PUSH1 0xD4 JUMP JUMPDEST PUSH1 0x40 MLOAD DUP1 DUP3 DUP2 MSTORE PUSH1 0x20 ADD SWAP2 POP POP PUSH1 0x40 MLOAD DUP1 SWAP2 SUB SWAP1 RETURN JUMPDEST CALLVALUE DUP1 ISZERO PUSH1 0x8B JUMPI PUSH1 0x0 DUP1 REVERT JUMPDEST POP PUSH1 0xA8 PUSH1 0x4 DUP1 CALLDATASIZE SUB DUP2 ADD SWAP1 DUP1 DUP1 CALLDATALOAD SWAP1 PUSH1 0x20 ADD SWAP1 SWAP3 SWAP2 SWAP1 POP POP POP PUSH1 0xDD JUMP JUMPDEST STOP JUMPDEST CALLVALUE DUP1 ISZERO PUSH1 0xB5 JUMPI PUSH1 0x0 DUP1 REVERT JUMPDEST POP PUSH1 0xD2 PUSH1 0x4 DUP1 CALLDATASIZE SUB DUP2 ADD SWAP1 DUP1 DUP1 CALLDATALOAD SWAP1 PUSH1 0x20 ADD SWAP1 SWAP3 SWAP2 SWAP1 POP POP POP PUSH1 0xEB JUMP JUMPDEST STOP JUMPDEST PUSH1 0x0 DUP1 SLOAD SWAP1 POP SWAP1 JUMP JUMPDEST DUP1 PUSH1 0x0 SLOAD SUB PUSH1 0x0 DUP2 SWAP1 SSTORE POP POP JUMP JUMPDEST DUP1 PUSH1 0x0 SLOAD ADD PUSH1 0x0 DUP2 SWAP1 SSTORE POP POP JUMP STOP LOG1 PUSH6 0x627A7A723058 KECCAK256 SWAP3 DUP16 DUP15 CREATE 0xd1 0xc8 0x5d 0xab PUSH20 0x1539EB8948DA9DB2B62B8EC032E1C2A8B728F021 0x49 DUP15 0xbb STOP 0x29 "
				},
				"gasEstimates": {
					"creation": {
						"codeDepositCost": "58600",
						"executionCost": "20125",
						"totalCost": "78725"
					},
					"external": {
						"deposit(int256)": "20455",
						"getBalance()": "402",
						"withdraw(int256)": "20433"
					}
				},
				"methodIdentifiers": {
					"deposit(int256)": "f04991f0",
					"getBalance()": "12065fe0",
					"withdraw(int256)": "7e62eab8"
				}
			},
			"userdoc": {
				"methods": {}
			}
		}
	}
}